:020000040800F2
:10000000E809002029020008DD250008EF22000889
:100010000D2500089908000825330008000000009D
:10002000000000000000000000000000252A000879
:100030008D090008000000008D280008092B000829
:10004000430200084302000843020008430200087C
:10005000430200084302000843020008430200086C
:10006000430200084302000843020008430200085C
:10007000430200084302000843020008430200084C
:10008000430200084302000843020008430200083C
:10009000430200084302000843020008430200082C
:1000A00043020008B52B0008430200084302000881
:1000B000430200084302000843020008430200080C
:1000C00043020008430200084302000843020008FC
:1000D00043020008430200084302000843020008EC
:1000E00043020008430200084302000843020008DC
:1000F00043020008430200084302000843020008CC
:1001000043020008430200084302000843020008BB
:1001100043020008430200084302000843020008AB
:10012000D108000843020008DD0800084302000867
:10013000430200084302000843020008430200088B
:10014000430200084302000843020008430200087B
:10015000430200084302000843020008430200086B
:10016000430200084302000843020008430200085B
:100170004302000843020008430200080000000098
:10018000430200084302000800F002F800F03CF8C7
:100190000AA090E8000C82448344AAF10107DA45E2
:1001A00001D100F031F8AFF2090EBAE80F0013F0F8
:1001B000010F18BFFB1A43F0010318477C550000DC
:1001C0009C550000103A24BF78C878C1FAD852076D
:1001D00024BF30C830C144BF04680C6070470000C1
:1001E0000023002400250026103A28BF78C1FBD840
:1001F000520728BF30C148BF0B6070471FB505F0DC
:1002000026F91FBD10B510BD00F0E2F81146FFF74A
:10021000F5FF04F0F3FA00F000F903B4FFF7F2FF82
:1002200003BC00F003F90000094880470948004773
:10023000FEE7FEE7FEE7FEE7FEE7FEE7FEE7FEE796
:10024000FEE7FEE704480549054A064B70470000F3
:10025000A52B000889010008E8030020E809002018
:10026000E8050020E805002053EA020C00F0698050
:100270002DE9F04B4FF00006002B1FBFB3FA83F5BA
:1002800003FA05F424FA05F65E4012BF1643B2FAEB
:1002900082F502FA05F4C5F120051EBF22FA05FC1D
:1002A00044EA0C04203556EA044C4FEA144418BFC3
:1002B000641C4FF000084FF00009904271EB030CF2
:1002C00039D3002919BFB1FA81F701FA07F6B0FA5C
:1002D00080F700FA07F6C7F120071EBF20FA07FCD7
:1002E00046EA0C062037B6FBF4FCA7EB0507103FE7
:1002F00007F01F0BCBF120060CFA0BFB2CFA06F6CD
:1003000044BFB3460026202FA4BF5E464FF0000B2B
:100310005BEA060C08BF4FF0010B19EB0B09ABFBB6
:10032000027C48EB0608C01B06FB02CC0BFB03CC8F
:1003300071EB0C01C1E70B46024641464846BDE859
:10034000F08B13B54FF000004FF00001AFF30080C9
:10035000BDE81C4070474FF0000200B513469446BC
:100360009646203922BFA0E80C50A0E80C50B1F10D
:100370002001BFF4F7AF090728BFA0E80C5048BF21
:100380000CC05DF804EB890028BF40F8042B08BFBF
:10039000704748BF20F8022B11F0804F18BF00F8BB
:1003A000012B704770477047704710B500F008F890
:1003B000006810BD10B5044600F002F8046010BDDE
:1003C00000487047880300200048704788030020D9
:1003D0007546FFF7F9FFAE4605006946534620F023
:1003E0000700854618B020B5FFF72CFFBDE8204078
:1003F0004FF000064FF000074FF000084FF0000BE1
:1004000021F00701AC46ACE8C009ACE8C009ACE893
:10041000C009ACE8C0098D46704710B50446AFF37B
:1004200000802046BDE81040FFF7F7BE01491820C4
:10043000ABBEFEE726000200704710B50146806B98
:10044000026C12F0500F05D0026CD20626D500F0D7
:10045000DBFB10BD016C41F40071016401688A6826
:1004600012F0405F17D1027EAAB9CA6A12F4700F67
:1004700002D08A6852050ED44A6822F020024A60EF
:10048000016C21F480710164016CC90403D4016C16
:1004900041F00101016400F0B5FB10BD806BC26C3E
:1004A000BDE810400846104710B5806B402101643C
:1004B000416C41F00401416400F0A6FB10BD10B591
:1004C000806B00F0A0FB10BD464910B54A6822F4CD
:1004D00040324A604A6843681A434A6001684A6881
:1004E00022F480724A6001684A68036942EA032282
:1004F0004A6001684A6822F040724A6001684A68AE
:1005000083681A434A6001688A6822F400628A603C
:1005100001688A68C3681A438A60816A6FF07062F2
:10052000D14201688A6822F070628A6001688A6834
:100530000CD0836A1A438A6001688A6822F04052AC
:100540008A6001688A68C36A1A4301E022F0405257
:100550008A6001688A6822F002028A6001688A68FB
:10056000037E42EA43028A6090F820100029016865
:100570004A680FD042F400624A6001684A6822F477
:1005800060424A6001684A68174C436A04EB43338F
:100590001A4301E022F400624A600168CA6A22F448
:1005A0007002CA620168CA6A838B104C04EB035361
:1005B0001A43CA6201688A6822F400728A6001687C
:1005C0008A6890F8303042EA43228A6001688A687B
:1005D00022F480628A6001688A68406942EA802069
:1005E000886010BD0023014000E0FFFF0000F0FF25
:1005F000F0B520212DED048B89B0B0EE618AF0EECC
:10060000418AB0EE609AF0EE409A6846FFF7A3FE8A
:10061000BDEEE90A2F4CAA228DED000ABDEEC90AF3
:10062000002115258DED010ABDEEE80A08468DED85
:10063000020ABDEEC80A8DED030A22700122627023
:10064000AF22A270F122E270009A120E6271009A3B
:10065000120CA271009A120AE271009A2272019A97
:10066000120E6272019A120CA272019A120AE272BE
:10067000019A2273029A120E6273029A120CA273EA
:10068000029A120AE273029A2274039A120E627498
:10069000039A120CA274039A120AE274039A227546
:1006A00010222271225C401C1144C9B2A842F9DB1D
:1006B000615500264FF6FF776D1CA1193B460122BC
:1006C000054801F0BBFD761CAE42F6DB09B0BDEC7F
:1006D000048BF0BD2C000020E402002010B504467D
:1006E0002DED048BF0EE000A90ED320A03F068F86D
:1006F000B0EE408A94ED330AF0EE000A03F060F8A1
:1007000038EE000A10EE100A04F030FE41EC100B37
:1007100003F0EEFB51EC100B04F0DCF894ED320A20
:1007200000EE900A9FED549B9FED558BB5EEC00AED
:10073000F1EE10FA1DDD94ED331AB5EEC01AF1EEAC
:1007400010FA16DBB0EEC01A81EE200A10EE100A85
:1007500004F00CFE41EC100B02F022FE53EC192BBE
:1007600051EC100B04F042FB53EC182B04F08CF905
:1007700026E0B5EEC00AF1EE10FA28D894ED331A4F
:10078000B5EEC01AF1EE10FA21DDB0EEC11A81EE1D
:10079000200A10EE100A04F0E9FD41EC100B02F003
:1007A000FFFD53EC192B51EC100B04F01FFB53EC25
:1007B000182B04F069F941EC100B9FED331B53E04B
:1007C00004F088F8C4F8DC00BDEC048B10BDB5EE75
:1007D000C00AF1EE10FA21D294ED331AB5EEC01A28
:1007E000F1EE10FA1AD8B0EEC01A81EE200A10EE1F
:1007F000100A04F0BBFD41EC100B02F0D1FD53ECEC
:10080000192B51EC100B04F0F1FA53EC182B04F0F7
:100810003BF941EC100B53EC192B27E0B5EEC00A65
:10082000F1EE10FAD0DB94ED330AB5EEC00AF1EE2A
:1008300010FAC9D2B0EEC01A81EE200A10EE100AEA
:1008400004F094FD41EC100B02F0AAFD53EC192BBF
:1008500051EC100B04F0CAFA53EC182B04F014F905
:1008600041EC100B9FED0A1B53EC112B51EC100BBC
:1008700004F062F8A4E70000000000000080664079
:10088000A7E8482EFF2109400000000000805640E4
:100890000000000000E07040FEE70000D0ED390AE3
:1008A000D0ED3A1AB6EE001A90ED3B0A41EEC10ABD
:1008B00040EE410AC0ED320ADFED040A21EEA01A33
:1008C00000EE601A80ED331A70470000D7B35D3F29
:1008D000014800F0BBBA00003C020020014800F0D3
:1008E000B5BA00002803002001681823CAB2103AE4
:1008F000B2FBF3F2054B6FF30901032A9B5CC3655E
:1009000000D9091D8165084670470000625400083F
:1009100010B5014600208B698A6A4FF0C07453B14C
:10092000B3F5005F15D072B1012A0CD0022A0AD0AB
:10093000032A09D104E01AB1012A06D0022A03D100
:10094000C96AC90100D5012010BDC96AA142FAD007
:1009500010BD002AF7D0012AF2D0022AF3D0032AD0
:10096000F3D010BD30B50468256825F480252560D6
:10097000046863608368402B036803D09960006853
:10098000C26030BD9A600068C16030BD704772B609
:10099000FEE7000010B504462DED028BFFF77EFF49
:1009A0002046FFF79BFED4ED320A9FED140A204645
:1009B00060EE800AC4ED320AD4ED330A20EE800ADC
:1009C00084ED330A01F0C8FE204601F009FE94EDE3
:1009D000340A04F1400001F02BFEB0EE408A94EDA1
:1009E000350A04F1840001F023FEF0EE480ABDEC64
:1009F000028B2046BDE8104002F015B8143FCE3FF0
:100A000010B59FED290A04462DED048B9FED258A34
:100A100080ED378A80ED050AB3EE080A80ED010A01
:100A200001F0C2FC207820B1012802D0022809D0B0
:100A30000CE001F0D7FC207801F094FD1B4801F098
:100A4000E3F803E001F0CEFC01F0CCFC207801F0EB
:100A500089FD164801F0D8F894ED010ADFED148AFB
:100A60009FED149AB0EE482AF0EE681AB0EE491ADB
:100A7000F0EE400AC82104F1400001F059FE94ED67
:100A8000010AB0EE482AF0EE681AB0EE491ABDEC41
:100A9000048B04F18400F2EE040ABDE8104000214A
:100AA00001F046BE000000000000C8429C02002089
:100AB0006F12033B0AD7A33C78B50024009490F84A
:100AC0003C20012A19D0012280F83C200A68072323
:100AD0000568092A13D9EE680A3A02EB42029340EC
:100AE0009E43EE600B788A680A3B03EB43039A400F
:100AF0000368DD682A43DA6010E0022078BD2E69C1
:100B000002EB420293409E432E610B788A6803EB0E
:100B100043039A4003681D692A431A614A681F23E8
:100B2000072A13D205686E6B521E02EB82029340B5
:100B30009E436E630B790A885B1E92B203EB8303BC
:100B40009A4003685D6B2A435A6327E005680D2AC3
:100B500012D22E6BD21F02EB820293409E432E6371
:100B60000B790A88DB1F92B203EB83039A40036878
:100B70001D6B2A431A6311E0EE6A0D3A02EB820202
:100B800093409E43EE620B790A880D3B92B203EBD1
:100B900083039A400368DD6A2A43DA62164B0568CC
:100BA000144A9D4206D10D68122D03D1556845F4B3
:100BB0008005556005689D4218D10B68102B01D047
:100BC000112B13D1536843F40003536009681029B3
:100BD0000CD10A490A4A0968B1FBF2F101EB810123
:100BE000490000E0491E00910029FBD180F83C40FB
:100BF000002078BD00230140002001402800002093
:100C000040420F0070477047704770B504004FF0C6
:100C1000000503D0206C002610B107E0012070BD54
:100C2000204600F01DF8666484F83C60206CC00625
:100C300010D4206C20F4885040F00200206420463C
:100C4000FFF742FC6664206C20F0020040F00100D7
:100C5000206400E0012584F83C60284670BD000057
:100C600070B586B0064614216846FFF774FB1D492F
:100C70003068884234D11C480025016841F48071F5
:100C80000160006800F4807005901748143801680E
:100C900041F0010101600068694600F00100059023
:100CA000C02000900320CDE90105104800F040FA73
:100CB000104C0F48C4E900050015A560C4E90350B5
:100CC000800060618000A0618011C4E907052046B2
:100CD000656200F08BF908B1FFF759FEB463A663B3
:100CE00006B070BD002001404438024000000240C0
:100CF000106402403C020020F8B5044600200E4675
:100D0000009094F83C10012907D0012184F83C1090
:100D100021688B68DB0702D011E00220F8BD8B68E8
:100D200043F001038B604049404B0968B1FBF3F18C
:100D300001EB410100E0491E00910029FBD121682F
:100D40008B68DB0503D58B6823F480738B60216887
:100D50008B68DB075DD0236C40F20165AB4343F445
:100D6000807323644968490505D5216C21F400513D
:100D700041F480512164216CC90404D5616C21F0D7
:100D80000601616400E0606484F83C00A16B2948BE
:100D9000274DC863A16B28480864A16B2748C86425
:100DA00021686FF0220008602068416841F080618E
:100DB00041602068816841F4807181602168134638
:100DC00032464C31A06B00F07BF968681C49C006C4
:100DD000206806D0884224D1816811F0405F13D08A
:100DE0001FE08842F8D0174A904203D1D1F804237B
:100DF000D206F1D0144A904213D1D1F8041301F075
:100E00001F011029E8D30CE0816841F08041816026
:100E100007E0206C40F010002064606C40F001009E
:100E200060640020F8BD00002800002040420F0050
:100E3000002301403B040008BF040008A904000887
:100E40000020014000210140002201402DE9F8432B
:100E500004464FF00009CDF8009063484FF4165156
:100E6000A56D0068B0FBF1F72E6894F85C100820BF
:100E700000FA01F131420FD021680A6852070BD500
:100E80000A6822F004020A6094F85C108840A860A6
:100E9000606D40F00100606594F85C104FF001084F
:100EA00008FA01F0304208D021684969090604D5E2
:100EB000A860606D40F00200606594F85C1004204A
:100EC0008840304208D021680968890704D5A860A5
:100ED000606D40F00400606594F85C10102088405C
:100EE000304218D021680968090714D5A860206825
:100EF0000168490304D50068000308D5A16C07E028
:100F00000168C90503D4016821F008010160216C62
:100F100009B12046884794F85C1020208840304270
:100F200031D021680968C9062DD5A86094F835002C
:100F300005282068016806D0490347D500680003EA
:100F40001DD4616C1CE021F016010160206841692C
:100F500021F080014161206C08B9A06C20B12068AB
:100F6000016821F00801016094F85C103F2088407E
:100F7000A86084F8358084F83490216D1FE0E16B1F
:100F800009B120468847606D00282BD0606DC007EE
:100F900014D0052084F835002068016821F0010193
:100FA00001600098401C0090B84203D82068006897
:100FB000C007F6D184F8358084F83490E16C0029BC
:100FC00010D001B02046BDE8F04308470168C905CC
:100FD000D5D4016821F01001016084F8358084F8CF
:100FE0003490CCE7BDE8F883280000202DE9F041DB
:100FF000044600F095F906465CB1022084F83500FD
:10100000002584F834502068016821F00101016056
:101010000DE00120BDE8F08100F082F9801B052879
:1010200005D920206065032084F83500F2E72068A8
:101030000068C007F0D12268116820480140D4E957
:1010400001031843D4E90336334318436369184353
:10105000A3691843E3691843236A18430843616A84
:10106000042903D1D4E90B13194308431060206805
:101070004069666A20F0070130460E4301270428C4
:101080000CD1A06A0643E06A40B12046FFF740FC5D
:1010900020B14020606584F83570BAE72068466169
:1010A0002046FFF721FC94F85C203F2191408160AD
:1010B000656584F835700020ACE700003F8010F0D3
:1010C0002DE9F0410446866D90F834000025012892
:1010D0000DD0012084F8340094F835700020012FE1
:1010E00007D084F8340002252846BDE8F0810220AC
:1010F000FBE7022784F8357060652046FFF732FC75
:1011000094F85C103F208840B0602068016841F08E
:1011100016010160206C20B12068016841F00801CF
:1011200001602068016841F001010160DCE7000016
:101130002DE9F84FDFF8BCA1002201250AF1040BCC
:1011400003264FF00F090BF1040E00BF0B6805FAE0
:1011500002F42340A34270D10F7907F00307012F57
:1011600001D0022F16D187684FEA420806FA08FC20
:1011700027EA0C07D1F80CC00CFA08FC4CEA070C63
:10118000C0F808C04768A7430C79C4F30014944022
:101190003C4344600C79E443A4070AD0C4684FEA96
:1011A000420C06FA0CF7BC438F6807FA0CF727438A
:1011B000C7600C7904F00304022C12D1D40800EBB0
:1011C000840CDCF820405707FF0E09FA07F824EAE0
:1011D0000804D1F8108008FA07F848EA0408CCF8A7
:1011E000208004684FEA420C06FA0CF7BC430F79E2
:1011F00007F0030707FA0CF7274307604C6814F45D
:10120000403F70D03C4C276847F4804727602468F3
:1012100022F0030704F480440094384C07EB040CDC
:10122000DCF8084897074FEA177809FA08F7BC4333
:10123000334FB84202D1002724E054E0314FB84286
:1012400001D101271EE0304FB84201D1022719E039
:101250002E4FB84201D1032714E02D4FB84201D1DF
:1012600004270FE02B4FB84201D105270AE02A4F8F
:10127000B84201D1062705E0284FB84201D107271F
:1012800000E0082707FA08F72743CCF80878DAF8CF
:1012900000405746D1F804C09C435FEACC3C00D5DF
:1012A0001C433C60DBF800405F46D1F804C09C431F
:1012B0005FEA8C3C00D51C433C60DEF8004077467A
:1012C000D1F804C09C435FEACC2C00D51C433C60A1
:1012D000084F0C373C68D1F804C09C435FEA8C2C63
:1012E00000D51C433C60521C102AFFF42FAFBDE810
:1012F000F88F0000003C01404438024000300140BB
:10130000000002400004024000080240000C0240BD
:10131000001002400014024000180240001C02406D
:1013200001488068704700001C0000200248816866
:1013300002781144816070471C0000200B4810B5F2
:10134000016841F400710160016841F4806101604D
:10135000016841F480710160032000F06FF80F20F4
:1013600000F006F800F024F8002010BD003C024018
:1013700070B50D4D04464FF47A712878B1FBF0F04A
:101380000A490968B1FBF0F000F00AFB48B9102CDB
:1013900007D200222146501E00F030F800206C6079
:1013A00070BD012070BD00001C000020280000203E
:1013B0000A4808B5016841F480410160006800F402
:1013C000804000900548001F016841F08051016095
:1013D000006800F08050009008BD000044380240D2
:1013E000002809DB00F01F02012191404009800024
:1013F00000F1E020C0F8001170470000F0B40E4B7F
:101400001B680C46C3F30223C3F10705042D00D962
:101410000425191D072901D2002300E0DB1E012647
:1014200006FA05F1491E214099409E40761E16405D
:101430003143F0BC01F0A2BF0CED00E0064900F022
:10144000070208684FF6FF03184040EA0220034AEB
:1014500010430860704700000CED00E00000FA0542
:101460002DE9F0470E46050065D0DFF81481D8F865
:101470000000F7B200F00700B04207D288F8007011
:10148000D8F8000000F00700B04254D128683D4C65
:10149000810712D5400703D5206840F4E050206052
:1014A0002878000703D5206840F460402060206859
:1014B000A96820F0F000084320602878C0072DD0EC
:1014C000304968680839012812D0022813D003284F
:1014D00011D00968890700292DDA216821F003015C
:1014E00001432160FFF71CFF814641F2883A0EE07C
:1014F00009688903EFE709688901ECE7FFF710FF46
:10150000A0EB0901514502D90320BDE8F08720680E
:10151000696800F00C00B0EB810FEFD1D8F8001033
:10152000404601F00701B14207D90770006800F09A
:101530000700B04201D00120E7E72878400705D531
:101540002068E96820F4E05008432060287800070C
:1015500006D52068296920F4604040EAC100206077
:1015600000F038F82168084AC1F30311515CC84003
:101570000649086006480068FFF7FAFE0020C4E745
:10158000003C0240083802406A540008280000204D
:10159000200000200448054900680968044AC1F396
:1015A0008221515CC8407047280000200838024062
:1015B0007A5400080448054900680968044AC1F3E0
:1015C0004231515CC8407047280000200838024072
:1015D0007A540008154810B5006810F00C02144841
:1015E00013D04110042A0FD0082A0ED10F4C241F0B
:1015F0002268236802F03F025B0207D52068C0F32F
:101600008810A0FB010106E0084610BD2168C1F367
:101610008811A1FB00010023FEF726FE2168C1F31B
:101620000141491C4900B0FBF1F010BD08380240EF
:101630000024F4002DE9F84F04006ED02078DFF884
:101640004C93C007A9F104054AD009F104000168D0
:10165000C1F38101012908D00068C0F3810002288C
:101660000AD1D9F80000400206D52868800337D592
:1016700060680028E1D033E06068B0F5803F10D0AA
:10168000B0F5A02F286810D020F48030286028689A
:1016900020F4802028606068A8B1FFF741FE06466C
:1016A0000DE0286840F48030F4E740F480202860A2
:1016B000F7E700BFFFF734FE801B642873D8286863
:1016C0008003F7D50CE0FFF72BFE064605E000BFD0
:1016D000FFF726FE801B6428F0D828688003F7D423
:1016E0002078DFF8AC8280074FF0000A3ED5A7488B
:1016F000001D016811F00C0F08D00068C0F38100D4
:1017000002280BD1D9F80000400207D428688007CE
:1017100016D5E068012800D112E033E1E068B8B1E5
:101720000120C8F80000FFF7FBFD064605E000BFFA
:10173000FFF7F6FD801B0228C0D828688007F7D580
:101740002868216920F0F80040EAC10028600DE017
:10175000C8F800A0FFF7E4FD064604E0FFF7E0FD4F
:10176000801B02281FD828688007F7D4207800073C
:1017700022D5864F87486169703771B101210160B8
:10178000FFF7CEFD064604E0FFF7CAFD801B0228E6
:1017900009D838688007F7D50EE0C0F800A0FFF739
:1017A000BFFD064605E082E0FFF7BAFD801B022878
:1017B0007DD838688007F7D42078400768D5DFF8EF
:1017C000CCB100270BF13C0BDBF80000C0000BD4C0
:1017D000DBF8001041F08051CBF80010DBF800007E
:1017E000012700F0805000906B4E3068C00510D487
:1017F000306840F480703060FFF792FD009005E0A3
:10180000FFF78EFD0099401A022850D83068C005B5
:10181000F6D55E4EA0686C3601280FD005283068DA
:1018200010D020F001003060306820F004003060FB
:10183000A068B8B1FFF774FD00900FE0306840F089
:101840000100F4E740F004003060F7E7FFF768FDBF
:101850000099411A41F28830814266D83068800789
:10186000F4D50EE0FFF75CFD009007E0FFF758FDB0
:101870000099411A41F28830814256D83068800779
:10188000F4D42FB1DBF8001021F08051CBF8001018
:10189000A069C8B33D49091D0968C1F38101022946
:1018A0004AD00228504607D0C8F8600000E03CE06B
:1018B000FFF736FD04463BE04746C8F86000FFF7F7
:1018C0002FFD064605E000BFFFF72AFD801B02281A
:1018D0002BD828688001F7D4D4E907010843A16A0E
:1018E0002E4A490802EB0141626A41EA821108432B
:1018F00094F82C1040EA0161C9F800100120386604
:10190000FFF70EFD044606E03EE000BFFFF708FDCE
:10191000001B022809D828688001F7D534E000BFF1
:10192000FFF7FEFC001B022802D90320BDE8F88F58
:1019300028688001F4D427E00128F7D0D9F8000006
:10194000E26900F4800191421CD1226A00F03F015B
:10195000914217D147F6C071626A0140B1EB821F14
:1019600010D1A26A4FF0FF3300F4403103EB520272
:10197000B1EB024F06D194F82C1000F07060B0EB80
:10198000016F01D00120D1E70020CFE704380240E9
:1019900000004742800E4742007000400000FFFFF9
:1019A00010B5401EB0F1807F01D3012010BD4FF073
:1019B000E02460610F21601701F0E0FC0020A061CD
:1019C00007202061002010BD7047704710B590F8C7
:1019D0003C20012A22D0012280F83C20CA688C6871
:1019E00022F4407222434C6822F4806222430C6845
:1019F00022F4006222430C6922F4805222434C6993
:101A000022F400522243C969002322F480420A438F
:101A100001684A6480F83C30002010BD022010BDEF
:101A200070B590F83C20012A32D0012480F83C4067
:101A3000022280F83D2003685A689D6822F07006F3
:101A40000A6832435A60134B02689A4214D0B2F1CA
:101A5000804F11D0104B9A420ED0104B9A420BD0AF
:101A60000F4B9A4208D00F4B9A4205D00E4B9A4228
:101A700002D00E4B9A4204D1496825F080031943E5
:101A8000916080F83D40002180F83C10084670BD10
:101A9000022070BD0000014000040040000800402A
:101AA000000C0040000401400040014000180040CC
:101AB00010B50446022249B104290ED0082913D0DA
:101AC00094F84500012816D0012010BD94F842007A
:101AD0000128F9D184F842200FE094F8430001284E
:101AE000F2D184F8432008E094F844000128EBD1B7
:101AF00084F8442001E084F845200422206801F0A5
:101B0000D0F82068416C41F40041416411492068DB
:101B1000884214D0B0F1804F11D00F4988420ED0C6
:101B20000E4988420BD00E49884208D00D498842A0
:101B300005D00D49884202D00C49884204D1816801
:101B400001F00701062903D0016841F0010101609D
:101B5000002010BD000001400004004000080040CB
:101B6000000C00400004014000400140001800400B
:101B700010B5040003D094F83D0010B107E0012037
:101B800010BD002084F83C00204600F01FF8022021
:101B900084F83D00211D206801F012F8012084F82E
:101BA000460084F83E0084F83F0084F8400084F842
:101BB000410084F8420084F8430084F8440084F82B
:101BC000450084F83D00002010BD000008B5006805
:101BD0000B49884212D10B48016841F001010160B4
:101BE0000068002200F00100009011461920FFF764
:101BF00005FCBDE808401920FFF7F2BB08BD000056
:101C0000000001404438024090F83D10012901D005
:101C100001207047022180F83D100168CA6842F037
:101C20000102CA6000681149884214D0B0F1804FA7
:101C300011D00F4988420ED00E4988420BD00E4970
:101C4000884208D00D49884205D00D49884202D00B
:101C50000C49884204D1816801F00701062903D0AC
:101C6000016841F00101016000207047000001405F
:101C70000004004000080040000C00400004014047
:101C8000004001400018004070B5044690F83C0048
:101C90000025012817D0012684F83C60022084F832
:101CA0003D002068826822F0770222F47F42826041
:101CB0000868502838D00DDC20284FD005DC90B3C0
:101CC000102811D14AE0022070BD302846D04028AB
:101CD0000AD13BE060282FD070280DD0B0F5805F8E
:101CE00003D0B0F5005F12D0012584F83D600020DC
:101CF00084F83C00284670BDCB68D1E901212068FA
:101D000000F0DCFF2068816841F0770109E0CB68D2
:101D1000D1E90121206800F0D1FF2068816841F4F9
:101D200080418160E1E719E0CA684968206801F0F4
:101D300099F85021206806E0CA684968206801F0D7
:101D4000A2F86021206800F0C3FFCEE7CA684968A6
:101D5000206801F087F840212068F4E722680146F6
:101D60001046F0E7704770B50446006801694FF00F
:101D70000005C943890715D4C168C943890711D42F
:101D8000E91E0161012020772068806980072046D4
:101D900002D0FFF7E7FF04E000F0C2F8204600F0B1
:101DA00054F9257720680169C943490717D4C168E8
:101DB000C943490713D46FF0040101610220207761
:101DC0002068806910F4407F204602D0FFF7CAFFE8
:101DD00004E000F0A5F8204600F037F925772068E8
:101DE0000169C943090716D4C168C943090712D458
:101DF0006FF008010161042020772068C069800726
:101E0000204602D0FFF7AEFF04E000F089F820463C
:101E100000F01BF9257720680169C943C90617D46A
:101E2000C168C943C90613D46FF0100101610820CD
:101E300020772068C06910F4407F204602D0FFF769
:101E400091FF04E000F06CF8204600F0FEF82577E2
:101E500020680169C943C90708D1C168C943C907D6
:101E600004D1891E0161204600F054F920680169FF
:101E7000C943090609D4C168C943090605D46FF0EE
:101E8000800101612046FFF79FFD20680169C94379
:101E9000490609D4C168C943490605D46FF0400119
:101EA0000161204600F048F920680169C9438906AC
:101EB0000BD4C168C943890607D46FF020010161C2
:101EC0002046BDE87040FFF780BD70BD10B586B0FC
:101ED000044614216846FEF73EFA0E4920688842FF
:101EE00016D10D480021026842F01002026000681D
:101EF00000F0100005904FF47C5000900220CDE9D6
:101F000001010120CDE9031069460448FFF710F9EB
:101F100006B010BD00000140303802400010024001
:101F2000704770B5044690F83C0000260D46012825
:101F30000FD0012084F83C006AB1042A1DD0082A81
:101F40002FD00C2A3FD00126002084F83C003046D8
:101F500070BD022070BD206800F0C2FE206881695B
:101F600041F0080181612068816921F004018161EB
:101F7000206881692A69114311E0206800F0E0FEC1
:101F80002068816941F4006181612068816921F4E0
:101F900080618161206881692A6941EA0221816149
:101FA000D2E7206800F002FF2068C16941F0080113
:101FB000C1612068C16921F00401C1612068C16963
:101FC0002A69114311E0206800F024FF2068C169EC
:101FD00041F40061C1612068C16921F48061C1617F
:101FE0002068C1692A6941EA0221C161ACE710B5E4
:101FF000040003D094F83D0010B107E0012010BDAB
:10200000002084F83C00204600F01EF8022084F8EE
:102010003D00211D206800F0D3FD012084F846001A
:1020200084F83E0084F83F0084F8400084F84100C2
:1020300084F8420084F8430084F8440084F84500A2
:1020400084F83D00002010BD7047704710B504466D
:10205000022249B104290ED0082913D094F8410076
:10206000012816D0012010BD94F83E000128F9D1B6
:1020700084F83E200FE094F83F000128F2D184F864
:102080003F2008E094F840000128EBD184F840207C
:1020900001E084F841200122206800F0F5FD164996
:1020A0002068164A884201D0904203D1436C43F421
:1020B000004343642068884213D0B0F1804F10D0B1
:1020C0000F4988420DD00F4988420AD00E498842F4
:1020D00007D0904205D00D49884202D00C49884271
:1020E00004D1816801F00701062903D0016841F09D
:1020F00001010160002010BD00000140000401400A
:102100000004004000080040000C00400040014076
:102110000018004010B5064C6068022804D105483C
:1021200000F0B6FB00206060401C606010BD000045
:102130000C00002004010020704770B5040004D09A
:1021400094F83D00002510B106E0012070BD84F830
:102150003C50204600F022F8242084F83D002068FE
:10216000C16821F40051C160204601F019F82068CF
:10217000016921F4904101612068416921F02A013F
:1021800041612068C16841F40051C160256420208C
:1021900084F83D0084F83E00002070BD70B586B024
:1021A000064614216846FEF7D6F81F493068884273
:1021B00038D11E480025016841F010010160006817
:1021C00000F01000059019481438016841F0010131
:1021D00001600068694600F0010005904FF4C0609E
:1021E00000900220CDE90105032003900720049010
:1021F0000F48FEF79DFF104C0E4820604FF0006026
:10220000C4E901054014C4E903506561A561E561B5
:10221000256220466562FEF7E9FE08B1FEF7B7FBCE
:10222000B463A66306B070BD00100140443802409C
:102230000000024040640240280300202DE9F843DA
:10224000044690F83D001F4616460D4620284CD106
:10225000C5B1BEB194F83C00012846D0012084F8F5
:102260003C004FF00008C4F84080212084F83D0075
:10227000FFF756F8A6848146E684A068B0F5805F33
:1022800003D004E00120BDE8F883206928B12E4680
:102290005FF0000584F83C800EE00026FAE780211C
:1022A000204601F003F8A0B9AEB116F8010B216881
:1022B0004860E08C401EE084E08C4B464FF000020A
:1022C00000970028EBD14FF04001204600F0EEFFD0
:1022D00030B10320D7E735F8020BC0F30800E6E77A
:1022E000202084F83D000020CDE70220CBE7FEE768
:1022F0007FB500211B48009101910291184A03917A
:10230000026001244FF480320461C0E901210476A7
:1023100080F82010144AC0E90A210225C561C16075
:1023200080F830404461FEF770FC08B1FEF72FFBE7
:102330000620CDE9000469460A480294FEF7BCFB7A
:1023400008B1FEF724FB0720CDE9000569460548E2
:10235000FEF7B2FB002801D0FEF719FB7FBD00009D
:1023600000200140F40100200100000F0D4808B5D5
:10237000016841F4800101600068002200F48000DF
:10238000009011463820FFF739F83820FFF728F879
:10239000002211463A20FFF731F8BDE808403A2004
:1023A000FFF71EB8303802400D4808B5016841F00B
:1023B00080010160016801F080010091016841F035
:1023C00001010160016801F001010091016841F023
:1023D00010010160006800F01000009008BD0000CE
:1023E0003038024010B596B000240F941094119428
:1023F000129413941C2168461494FDF7ACFF20211D
:1024000007A8FDF7A8FF3248304901605321416019
:102410002021816040F2F311C0E9031401214161E0
:1024200080218161FFF7A4FB08B1FEF7B0FA4FF4F9
:1024300080500F900FA92648FFF726FC08B1FEF741
:10244000A6FA2348FFF7D3FD08B1FEF7A0FA1394CC
:1024500013A91F481494FFF7E3FA08B1FEF797FA9F
:102460006020CDE9000402940394049405940022B2
:10247000694617480694FFF754FD08B1FEF787FA3E
:10248000042269461248FFF74CFD08B1FEF77FFAB7
:10249000082269460E48FFF744FD08B1FEF777FAB7
:1024A0000794089409944FF400500A94CDE90B4026
:1024B00007A907480E94FFF789FA08B1FEF767FAF3
:1024C0000348FFF703FD16B010BD000000000140F7
:1024D0009C0200200C4810B50A4901604FF4E1311C
:1024E0004160002181600C22C160C0E90412816159
:1024F000C161FFF722FE002803D0BDE81040FEF7BF
:1025000046BA10BD00100140E4020020FEE70000C2
:10251000DFED111A124820EE212A9FED100A026801
:10252000C2EE002ABCEEE22A12EE101A516360EEEF
:10253000A10A026880EE802AFCEEC20A10EE901A10
:10254000916361EE210A006880EE801ABCEEC10A38
:1025500010EE101AC163704700007A440000C842B0
:102560009C02002010B5D8B1012819D0022831D121
:1025700000211948FFF76AFD00211748FFF798FA74
:1025800004211548FFF762FD04211348FFF790FA74
:1025900008211148FFF75AFD08210F48FFF788FA74
:1025A00000210D48FFF752FD00210B48FFF780FA8C
:1025B00004210948FFF74AFD04210748FFF778FA8C
:1025C00008210548FFF742FDBDE8104008210248F8
:1025D000FFF76EBA10BD00009C020020FEE700006D
:1025E000D0ED370A90ED361A90ED340ADFED0F1A70
:1025F000F4EEC10AF1EE10FA06D231EE612AB4EE21
:10260000E02AF1EE10FA06D370EEE11AF4EEC11AE8
:10261000F1EE10FA06DDC0ED360AB1EE400A80EDAB
:10262000340A7047C0ED360A70470000000034439A
:1026300080ED050AD0ED010A70EEC00AC0ED060A71
:1026400090ED020A60EE801A9FED350AC0ED081A7F
:102650000168B1F1814F09D1B0EEE01A11EE102AF4
:10266000304B9A4202DA80ED0C0A70472E4A9142B2
:1026700004D110EE901A2D4A914207DA90ED070A24
:1026800090ED041A30EEC00A20EE010A80ED0A0A2D
:1026900090ED091A90ED030A00EE801A80ED091AF8
:1026A00090ED0F0AB4EEC01AF1EE10FA02DDBDEEA5
:1026B000C00A0DE0B1EE402AB4EEC21AF1EE10FAF3
:1026C0000AD2BDEEC00A10EE101A494200EE101AEE
:1026D000B8EEC00A80ED090AC0ED070A90ED090ABC
:1026E000D0ED0A0A31EE800A30EE200ABDEEC00AB3
:1026F000B8EEC00A80ED0C0AD0ED0E0AB4EEE00A86
:10270000F1EE10FA06DCF1EE600AB4EEE00AF1EE4A
:1027100010FA01D2C0ED0C0A90ED0C0A70470000CF
:102720000000000000002041000040400000204266
:1027300002EE901AF8EEE22AC0ED012A80ED0E0AB0
:102740009FED040AC0ED0F0A80ED070A083080EC07
:10275000031A70470000000070B5494D04462DED86
:10276000068B90ED370AD5ED000A30EE200A9FED7A
:10277000458A60EE080ADFED448AC83480EEA80A74
:1027800010EE100A02F0F2FD41EC100B01F04CFBD0
:10279000B0EE409AF0EE609A606802F0E7FD53EC0C
:1027A000192B02F023FB94ED050AD5ED000A41EC4C
:1027B000190B30EE200A60EE080A80EEA80A10EE2F
:1027C000100A02F0D3FD41EC100B00F095FFB0EEC3
:1027D00040AAF0EE60AA206802F0C8FD53EC1A2B64
:1027E00002F004FB53EC192B02F0A6F802F072F889
:1027F00094ED050AD5ED000A064630EE200A60EE9B
:10280000080A80EEA80A10EE100A02F0AFFD41ECB3
:10281000100B01F009FBB0EE409AF0EE609A2068D0
:1028200002F0A4FD53EC192B02F0E0FA94ED050A36
:10283000D5ED000A41EC190B30EE200A60EE080AD3
:1028400080EEA80A10EE100A02F090FD41EC100B89
:1028500000F052FFB0EE408AF0EE608A606802F04D
:1028600085FD53EC182B02F0C1FA53EC192B02F042
:1028700093FC02F02FF8C4E90260BDEC068B70BD3A
:102880000C000020DB0F494000003443704700007B
:102890000346174800B590ED000A90ED011ADFEDF0
:1028A000150AB8EE400AB8EE411A1349134830EE43
:1028B000600A71EE601A70EE210AB1EE602A00F033
:1028C00003F90D490D4883ED390A091DB0EE610A7F
:1028D0003C3000F0F9F80849084883ED3B0A08311C
:1028E000B0EE420A783000F0EFF883ED3A0A00BD0E
:1028F000140000200070004500000020500000205F
:1029000010B504462DED088BF0EE409AB0EE609ABB
:1029100090ED370A9FED418A60EE080ADFED408AAC
:1029200080EEA80A10EE100A02F020FD41EC100B18
:1029300001F07AFAB0EE401AF0EE601AB0EE41AA59
:10294000F0EE61AA19EE100A02F010FD53EC1A2BFA
:1029500002F04CFA94ED370A41EC1A0B60EE080ACB
:1029600080EEA80A10EE100A02F000FD41EC100BF8
:1029700000F0C2FEB0EE40BAF0EE60BA19EE900A76
:1029800002F0F4FC53EC1B2B02F030FA53EC1A2B40
:1029900002F002FC01F09EFFA06094ED370A60EEA9
:1029A000080A80EEA80A10EE100A02F0DFFC41ECE3
:1029B000100B00F0A1FEB0EE40AAF0EE60AA19EEF6
:1029C000100A02F0D3FC53EC1A2B02F00FFA94ED2C
:1029D000370A41EC1A0B60EE080A80EEA80A10EEE6
:1029E000100A02F0C3FC41EC100B01F01DFAB0EE2E
:1029F000408AF0EE608A19EE900A02F0B7FC53ECC0
:102A0000182B02F0F3F953EC1A2B01F095FF01F0AB
:102A100061FFE060BDEC088B10BD0000DB0F49409A
:102A200000003443704710B50446FFF769FF201DCE
:102A300000F00AF8201D00F039FA343494EC030A4F
:102A4000BDE81040FFF764BDD0ED011ADFED1C0AB0
:102A50009FED1C2A90ED020A61EEA00A61EE821A37
:102A6000B6EE001AB5EEC00A40EE410A40EE411A39
:102A70000021C160F1EE10FA00DD0121F5EEC00A7F
:102A8000F1EE10FA00DD891CF5EEC01AF1EE10FA35
:102A900000DD091D072909D2DFE801F0080610044E
:102AA0000C0A0E00012100E00221C160C0687047DD
:102AB0000321FAE70421F8E70521F6E70621F4E708
:102AC000D7B35D3FD7B35DBF0A68DFED0E0A0F2AAB
:102AD00001DB00220A6000EB820282ED000A0A6834
:102AE000521C0A605FF0000100EB8102491C92ED6C
:102AF000000A0F2970EE200AF6DBB2EE0E1A80EE05
:102B0000810A704700000000FEF710BC30B593B09A
:102B100030216846FDF71FFC14210CA8FDF71BFCB3
:102B20001E480025016841F080510160006800F0F6
:102B3000805011901A48016841F48041016000689A
:102B4000022400F480401190012000904FF4A02056
:102B500001906005CDE9064006200890FC20CDE9F3
:102B6000090404200B906846FEF764FD08B172B6B4
:102B7000FEE70CA90F2081E831004FF4A0500F9020
:102B80004FF48050109005210CA8FEF769FC002836
:102B900001D072B6FEE713B030BD000040380240ED
:102BA000007000400248016841F470010160704704
:102BB00088ED00E00148FFF7D6B800009C02002035
:102BC000F0B50268254C264D264E274F274B4FF077
:102BD000804CA04209D0604507D0A84205D0B04241
:102BE00003D0B84201D0984204D122F0700E4A6856
:102BF00042EA0E02A0421BD0604519D0A84217D06D
:102C0000B04215D0B84213D0984211D0184DA84206
:102C10000ED0184DA8420BD0174DA84208D0174D22
:102C2000A84205D0164DA84202D0164DA84203D1A5
:102C300022F44075CA682A434D6922F080022A4373
:102C400002608A68C2620A688262A04201D0984229
:102C500001D10969016301214161F0BD000001401A
:102C60000004004000080040000C00400004014047
:102C7000004001400044014000480140001800406D
:102C8000001C00400020004010B501F01F0301218E
:102C9000046A99408C430462016A9A4011430162BC
:102CA00010BD10B501F01F030421046A99408C4344
:102CB0000462016A9A401143016210BD10B5846834
:102CC00042EA032224F47F440A432243826010BD77
:102CD000826822F070020A4342F007018160704767
:102CE000F0B5026A22F001020262036A4268846956
:102CF000124E24F073050C682C4323F002058B68F8
:102D00002B430D4DA84201D0B04205D123F0080756
:102D1000CB683B4323F00403A84201D0B04205D165
:102D20004D6922F4407215438A692A4342608461E6
:102D3000496841630362F0BD0000014000040140A6
:102D4000F0B5026A22F010020262026A43688469E6
:102D50000D6824F4E64444EA05248D6822F020023C
:102D600042EA05120F4D104EA84201D0B04206D1E2
:102D7000CF6822F0800242EA071222F04002A84205
:102D800001D0B04207D14D6923F4406343EA850383
:102D90008D6943EA85034360846149688163026207
:102DA000F0BD00000000014000040140F0B5026ADF
:102DB00022F480720262026A4368C46922F40072DB
:102DC00024F073050C68124E2C438D6842EA0522EC
:102DD0000E4DA84201D0B04206D1CF6822F4006265
:102DE00042EA072222F48062A84201D0B04207D111
:102DF0004D6923F4405343EA05138D6943EA0513F3
:102E00004360C4614968C1630262F0BD00000140D3
:102E10000004014030B5026A22F480520262046A62
:102E20004268C3690D6823F4E64343EA05238D68CD
:102E300024F4005444EA0534084DA84202D0084D59
:102E4000A84204D14D6922F4804242EA85124260D0
:102E5000C36149680164046230BD000000000140A4
:102E60000004014010B5036A046A24F001040462FE
:102E7000846924F0F00444EA021423F00A020A43AD
:102E80008461026210BD10B5036A23F0100303626F
:102E90008369046A23F4704343EA023224F0A003F6
:102EA00043EA01118261016210BD000090ED040A45
:102EB000DFEDB70AD0ED001A90ED022A20EE201ABD
:102EC000C1EE210AD0ED011A9FEDB21A61EE813AEE
:102ED000B6EE001A42EE413ADFEDAF2A21EEA23AF9
:102EE00002EE413A9FEDAD4AC168F5EE002AFEEED2
:102EF000001A07290BD2DFE801F0040B3F77A8DDA9
:102F0000FD0080ED0C4A80ED0D4A80ED0E4A7047C1
:102F100060EEA31A60EE820A61EE811A60EE810A09
:102F2000C0ED091AC0ED0B0A31EEA01AB4EEC10AC9
:102F3000F1EE10FA0BD281EE812A62EE001AC0ED9A
:102F4000091AC0EE811A61EE800AC0ED0B0A90EDFD
:102F5000091A30EE410A31EE201A30EE600A20EEF6
:102F6000220A80ED050A31EE001A70EE800A80ED2B
:102F70000C1AC0ED0D0A34E020EE831A60EEA30AAD
:102F800021EE211A60EEA11A80ED0B1AC0ED071A8E
:102F900071EE810AB4EEE00AF1EE10FA0BD281EE86
:102FA000A02A62EE001AC0ED071AC1EE201A61EEE7
:102FB000800AC0ED0B0A90ED071AD0ED0B0A30EE37
:102FC000410A31EE201A30EE600A20EE220A80ED2E
:102FD000050A31EE001A70EE800A80ED0D1AC0ED80
:102FE0000C0A80ED0E0A704760EE821A60EE830ACA
:102FF00061EE811A60EE810AC0ED071AC0ED080A81
:1030000031EEA01AB4EEC10AF1EE10FA02D3B0EE1E
:10301000611A05E0C0EE811A21EE801A80ED071AD0
:1030200030EE410A31EE201A30EE600A20EE220A1C
:1030300080ED050A31EE001A70EE800A80ED0D1A5F
:10304000C0ED0E0A80ED0C0A704720EE821A60EE89
:10305000A30A21EE211A60EEA10A80ED061AC0ED46
:10306000080A70EE811AB4EEE10AF1EE10FA0BD202
:1030700080EEA12A62EE000AC0ED080AC1EE210A24
:1030800060EE800AC0ED060A90ED061AD0ED080A3F
:1030900030EE410A31EE201A30EE600A20EE220AAC
:1030A00080ED050A31EE001A303070EE800A80ECB7
:1030B000030A704760EE831A60EEA30A61EE811A7C
:1030C00020EE811AC0ED061A80ED0A1A71EE810A0F
:1030D000B4EEE00AF1EE10FA0BD281EEA02A62EE15
:1030E000001AC0ED061AC1EE201A61EE800AC0ED8A
:1030F0000A0A00E016E090ED061AD0ED0A0A30EE5A
:10310000410A31EE201A30EE600A20EE220A80EDEC
:10311000050A31EE001A70EE800A80ED0E1AC0ED3D
:103120000C0A32E020EE831A60EE820A21EE211AA8
:1031300060EEA10A80ED091AC0ED0A0A71EE201AAC
:10314000B4EEE10AF1EE10FA0BD281EE212A22EE62
:10315000001A80ED091A80EEA11A61EE000AC0ED96
:103160000A0A90ED091A30EE410A31EE201A30EECB
:10317000600A20EE220A80ED050A31EE001A70EE98
:10318000800A80ED0C1AC0ED0E0A80ED0D0A704722
:10319000D7B3DD3FD7B35D3FD7B35DBF00000000BD
:1031A00070B5044600680169E26821F4405111439A
:1031B00001612169A068E26908436169114308431C
:1031C0002168CA6849F20C639A430243CA602068C6
:1031D0004169A26921F4407111434161314920687C
:1031E000884202D03049884202D1FEF7E3F901E07B
:1031F000FEF7D0F9E2690023192164253226B2F5E1
:10320000004F626828D0A0FB0101930F9200FDF7E8
:103210002BF80146B0FBF5F06FF01802504301EBBC
:10322000800006EB0010B0FBF5F000F0F002B1FBFF
:10323000F5F002EB0012B1FBF5F06FF01803584304
:1032400001EB800006EB0010B0FBF5F000F00F0082
:1032500021681044886070BDA0FB010192185B4199
:10326000FDF702F80146B0FBF5F00201B1FBF5F005
:103270006FF01803584301EB800006EBC000B0FB71
:10328000F5F000F0F80002EB4002B1FBF5F0584316
:1032900001EB800006EBC000B0FBF5F000F007008A
:1032A000D6E7000000100140001401402DE9F04174
:1032B000984617460E460446069D27E0681C25D012
:1032C0002DB1FEF72DF8A0EB0800A8421ED920680A
:1032D0000C3050E8001F21F4D07140E80012002AA1
:1032E000F5D12068143050E8001F21F0010140E8BA
:1032F0000012002AF5D1202084F83D0084F83E0019
:10330000002084F83C000320BDE8F08120680068BC
:1033100036EA000004D00020B842CFD00020F3E706
:103320000120F9E7FEE703B401984100009850EA54
:10333000C12018BF04204A0D18BF40F0010040F220
:10334000FF72B2EB515F08BF40F00200012808BFD6
:10335000052002B070474100080218BF04200A0E81
:1033600018BF40F001004FF07F4232EA010108BF70
:1033700040F00200012808BF052070470907090E28
:10338000002804DB00F1E02080F80014704700F012
:103390000F0000F1E02080F8141D704700000000CD
:1033A00010B5B94A2DED020B2DED0C8B82B00F99A3
:1033B00021F000409FEDB6CB90422CDBA0F14053B2
:1033C0000E9AA3F17F631A430FD0B349884202DCFF
:1033D00016D10E98A0B19DED0E0B02B0BDEC0C8B7A
:1033E00002B0BDE8104001F0ABB90029C1BF9FEDAC
:1033F000AC0B02B0BDEC0C8B02B0C8BF10BD16E028
:103400000120FCF7D7FF02B0BDEC0C8B02B0BDE889
:10341000104001F0A1B9A44A9FEDA59B9FEDA6AB7A
:1034200090425EDAA6499FEDA8CB814208DBB0EE60
:103430004C0AF0EE6C0A02B0BDEC0C8B02B010BD71
:103440009DED0E0B53EC102B51EC100B01F0CEFC4C
:1034500041EC180B9E480621B0EE480AF0EE680ACF
:10346000784401F059F853EC182B51EC100B01F093
:10347000BDFC41EC1B0B9748B0EE480AF0EE680A21
:103480000421784401F048F853EC182B51EC100B50
:1034900001F0ACFC53EC192B01F04EFA41EC100B8F
:1034A00051EC1B0B53EC102B01F0EEFA41EC100B1E
:1034B00053EC102B9DED0E0B51EC100B01F096FC14
:1034C00053EC1A2B01F090FD9DED0E1B53EC112BCC
:1034D00001F08AFD53EC1C2B01F086FD41EC100B32
:1034E000A9E79FED7D8B9FED7EBB9DED0E0B002927
:1034F00053EC192B51EC100B52DA01F01DFA53EC7E
:10350000182B01F073FC41EC180B77480621B0EE44
:10351000480AF0EE680A784400F0FEFF53EC182BDE
:1035200051EC100B01F062FC41EC1D0B6F48B0EE4A
:10353000480AF0EE680A0421784400F0EDFF53ECED
:10354000182B51EC100B01F051FC53EC192B01F02E
:10355000F3F941EC190B51EC180B01F077F941EC40
:10356000180B53EC192B51EC1D0B01F08DFA53EC99
:10357000182B01F03BFC53EC1A2B01F00DFE41EC33
:10358000100B51EC180B53EC102B01F0D5F953EC48
:103590001B2B01F02BFC53EC1C2B01F025FD6DE0E7
:1035A00001F022FD53EC182B01F020FC41EC180B2C
:1035B00001F04CF941EC1A0B00208DED00AB0090AE
:1035C0009DED000B51EC1A0B53EC102B01F0B4F9EC
:1035D0009DED000B41EC1C0B53EC102B51EC100B30
:1035E00001F004FC53EC182B01F0FEFC53EC1C2BF7
:1035F00001F04AFA41EC1C0B3D48B0EE480AF0EEEF
:10360000680A0621784400F087FF53EC182B51EC30
:10361000100B01F0EBFB41EC1D0B3648B0EE480AF5
:10362000F0EE680A0421784400F076FF53EC182B82
:1036300051EC100B01F0DAFB53EC192B01F07CF983
:1036400041EC100B51EC1D0B53EC102B01F01CFA4C
:1036500053EC1A2B01F0CAFB53EC1C2B01F06CF954
:1036600041EC100B53EC102B9DED000B51EC100BAB
:1036700001F062F953EC1B2B01F0B8FB41EC100B8D
:10368000D9E60000000000000000F03F000000004C
:10369000182D4454FB2109400000F07F0000000079
:1036A00000000000000000000000E03F00000000FB
:1036B000000000000000F03F075C143326A6913C98
:1036C0000000603C00000000182D4454FB21F93F2D
:1036D0002420000032200000000000000000E03F35
:1036E00000000000000000406E1F00007C1F000072
:1036F000801E00008E1E000010B52F499FED2C1B70
:103700002DED020B84B0059820F000408842D8BF10
:103710009DED040B2DDD2949884209D1049840B95B
:103720004FF00100FCF746FE01F016F806B010BDA0
:1037300005DB9DED040B01F003F806B010BD6846F3
:103740009DED040B00F014FC10F0030004BF9DED90
:10375000021B9DED000B0CD001280ED09DED021B2D
:103760009DED000B022817D0012000F051FF06B09C
:1037700010BD00F019FE06B010BD9DED021B9DEDC1
:10378000000B012000F044FF51EC100B01F095F804
:1037900006B041EC100B10BD00F006FE51EC100B12
:1037A00001F08BF806B041EC100B10BD00000000DA
:1037B0000000000000000000FB21E93F0000F07F56
:1037C00010B510EE100A2DED068BB7EE001A10EEB4
:1037D000901AB0EE418A0022A0F5000CDFEDFE9AAF
:1037E0004FF00073BCF1FE4F4FF07F4403EB410CF0
:1037F00080F0B481BCF1804FC0F02082F7490144D1
:103800009FEDF73AB1F5005F40F2D48200F58021D8
:10381000CB0C03F00F0101EE901AC3F307137F3BAB
:10382000A0EBC350B8EEE12A00EE100A1A44DFED17
:10383000ED2AF0EE411A42EE221AF0EE613A70EEF5
:10384000232A30EE632A12EE900A00F500606FF32F
:103850000B0001EE900A73EEE13A33EE804AC1EEBE
:10386000223A22EE230A10EE100A00F500606FF3F0
:103870000B0000EE100A00EE612A00EE442A62EE10
:10388000232A70EE221A21EEA12ADFEDD73A02EEAA
:10389000233A23EE023A20EE012A22EE811A03EEA9
:1038A000211A32EE010A10EE100A00F500606FF3E3
:1038B0000B0000EE100A72EE401A31EE812A9FEDE5
:1038C000CB1A60EE011A9FEDCA1A20EE011A9FED85
:1038D000C90A02EE001A31EE810A10EE100A00F554
:1038E00000606FF30B0000EE100AC34871EEC01ABF
:1038F00031EE812A784400EBC10090ED003AD0ED22
:10390000011A100101EE100AF8EEC12A32EE211A56
:1039100031EE001A31EE031A31EE221A11EE100ABE
:1039200000F500606FF30B0009EE100A39EE621A21
:1039300031EE431A31EE400A30EE610A32EE40AA0F
:1039400010EE900A002100F500606FF30B0008EE06
:10395000900A084670EEE8AA4FF0000029EE280A07
:1039600000F00C01F0EEC00A10EE900AB0F18B4F9F
:103970000DDD10EE900AB4EB400F08D310EE100AE4
:103980004FF08B4262F31E0008EE900A13E069EEDE
:103990002A0A38EEAA1A4AEE010A30EE201A11EE6F
:1039A000100A00F500606FF30B0008EE900A30EE8D
:1039B000680A70EE209A0C204FF0000038EEA90A39
:1039C000B5EEC00AF1EE10FA34BFFEEE000AF6EED4
:1039D000000A30EE800ABDEEC00A10EE100A011196
:1039E00000EE101AF8EEC00A00EE100AB8EEC00A97
:1039F00038EEC00A30EE290ADFED801A9FED801AFA
:103A000000EE211ADFED7F1A7F4900F00F0040EE33
:103A1000011A21EE800A794401EB800191ED001A30
:103A20007A49794401EB8001D1ED001A784901EE21
:103A3000801A794401EB8000764990ED000A31EE5E
:103A4000001AB0EEE00A10EE100A884215DA10EE05
:103A5000100AB4EB400F10D39FED6F0A30EE800ACE
:103A6000DFED6E0A20EE200A68EE010ABDEC068B3F
:103A7000BCEEC00A20EE200A10BD10EE100A684904
:103A8000884243DA10EE100AB4EB400F3ED3BDEE8D
:103A9000E00A68EE010A10EE100A00EBD072511035
:103AA000C90501F17E5100EE101AA0EB6200C005BD
:103AB00060EE200A00F17E5000EE100A60EE808A6F
:103AC00018EE900AB4EB400F0FD10220FCF772FC05
:103AD00000F078FE10EE101A18EE100ABDEC068BFE
:103AE00061F31E0000EE100A10BD18EE900A4000AF
:103AF00011D018EE900AFFF72EFC042808BF00F042
:103B000069FEB0EE680ABDEC068B10BDF5EEC00A8A
:103B1000F1EE10FA0FD20220FCF74CFC00F05AFE36
:103B200010EE101A18EE100ABDEC068B61F31E00A1
:103B300000EE100A10BD0220FCF73CFC00F042FE33
:103B400010EE101AB0EE480A10EE100ABDEC068B0B
:103B500061F31E0000EE100A10BD00BFBCF1804FE3
:103B60006CD300BF00F1FF43B3F1FE4F24D200BF7E
:103B7000B0EEC00A10EE100AC1F3C7537F2B0DDB65
:103B8000972BBFF63BAEC3F196034FF0010C0CFA36
:103B900003F3A3F1010C1CEA010F08D00120FCF78C
:103BA00009FCBDEC068BBDE8104000F003BE0B42E3
:103BB00018BFBFEE008A21E643001CBF4FF08073A0
:103BC000B3EB400F34D96FF01A02DFED161A20EE76
:103BD000210A10EE100A27E000000000001080C04B
:103BE000ABAAAA3E0000803D7EE24C3E00B03842C7
:103BF000D49AB8BB3BAA3842E01B0000FC5963379B
:103C0000C9FF753A1872313D7E1B0000B21B0000DF
:103C1000221B00000000FC420000FE420000004B9E
:103C2000000040430000004D10F0004FA0D1E5E53A
:103C3000A0F50003B3F1FE4F21D2DFE503EB410312
:103C4000B3F1007F11D3F5EEC00AF1EE10FA05D101
:103C5000430018BFB4EB400F76D883E701F0004172
:103C600041F0FC5100EE901A7CE7B3F1807F06D260
:103C700010EE903AA3F5000300EE903A72E720F0C0
:103C800000426FF0FF4C604C02EB0C03A34210D3D8
:103C900021F000439C44A4450BD3B0F17E5F18BFD4
:103CA0005FEA410C50D0B2F1FF4F98BFB3F1FF4F24
:103CB00005D9BDEC068BBDE8104000F077BDB0F132
:103CC000FF4F0FD0C1F3C7527F2A09DB972A11DAC1
:103CD000C2F19602012303FA02F2531E0B4205D0F1
:103CE000002208E011F0004F55D128E00A4218BF29
:103CF000012200D1022210F5000F13D028B3B0F139
:103D0000004F26D010F1814F4FD04FF0FE42B2EB62
:103D1000400F94BF01200020012202EBE171884294
:103D200039D10CE011F0004F02D0012A38D032E036
:103D3000012A02BF9FED350ABDEC068B10BD9FED39
:103D4000340ABDEC068B10BD2FE011F0004F0CD1F2
:103D500021E0B1F1FF4F1ED011F5000F05D011F099
:103D6000004F15D00AB1012A08D00220FCF722FB2F
:103D7000BDEC068BBDE8104000F00EBD0220FCF744
:103D800019FB00F009FDBDEC068BB1EE400A10BD39
:103D90000AB1012A04D0B0EE690ABDEC068B10BD51
:103DA000BDEC068B9FED1B0A10BDBDEC068BB7EE7C
:103DB000000A10BD30EE410AB5EE001A9FED172A39
:103DC00000EE413AB6EE001A60EE001A00EE431A19
:103DD00061EEC11A9FED101A20EE011A20EE020AC0
:103DE0009FED0F2A01EE820A71EE001A11EE900A81
:103DF00000F500606FF30B0009EE100A31EE491A6E
:103E000031EE00AA9CE50000FFFF3F00000080FFAC
:103E10000000807F0000008000B0B841D49A38BB19
:103E20003BAAB8410000000010B52F499FED2C1BA4
:103E30002DED020B84B0059820F000408842DCBFD5
:103E400000209DED040B32DD2849884209D10498F9
:103E500040B94FF00100FCF7ADFA00F07DFC06B070
:103E600010BD05DB9DED040B00F06AFC06B010BD33
:103E700068469DED040B00F07BF810F0030011D0B4
:103E8000012818D09DED021B9DED000B02281AD0D1
:103E900000F08AFA51EC100B00F00FFD06B041EC77
:103EA000100B10BD9DED021B9DED000B012000F0DD
:103EB000AFFB06B010BD9DED021B9DED000B00F0A9
:103EC00073FA06B010BD012000F0A2FB51EC100BFC
:103ED00000F0F3FC06B041EC100B10BD0000000038
:103EE0000000000000000000FB21E93F0000F07F1F
:103EF00000B52DED048BB0EE409AF0EE609A83B0E1
:103F000051EC190B01F07CF841EC180B18EE100A7B
:103F100018EE901A8DED008B002818BF0120084381
:103F200020F00040C0F17F6000F1E040C00F14D0ED
:103F300019EE101A19EE900A8DED009B002918BF9A
:103F40000121084320F00040C0F17F6000F1E04013
:103F5000C00F04BF0120FCF72DFAB0EE480A03B0F1
:103F6000F0EE680ABDEC048B00BD0000000000000C
:103F70002DE9F14F04462DED020B2DED088B8AB093
:103F80009FEDE70B80ED020B139EE74826F00045FE
:103F900085420ADC9DED120B002084ED000B0AB077
:103FA000BDEC088B03B0BDE8F08FE0489FEDE0ABBF
:103FB0009FEDE1BBA84247DDE14F9FEDE39B9FED05
:103FC000E48B9DED120B53EC1A2B51EC100B002ED1
:103FD0001CDD01F0E1F841EC100BBD4208D053ECC0
:103FE0001B2B51EC100B01F0D7F8C4E900010BE0DA
:103FF00053EC192B51EC100B01F0CEF853EC182BAD
:1040000001F0CAF8C4E900010120C8E700F094FCFF
:1040100041EC100BBD4208D053EC1B2B51EC100BA4
:1040200000F08AFCC4E900010BE053EC192B51ECC1
:10403000100B00F081FC53EC182B00F07DFCC4E960
:1040400000014FF0FF30AAE7C348A84279DB9DED9D
:10405000120B51EC100B00F0C5FB41EC180B9FED5F
:10406000C00B53EC102B00F0C1FE9FEDBF1B53ECB7
:10407000112B00F061FC00F05FFE074600F08BFEA4
:1040800041EC190B53EC1A2B00F0B0FE53EC182B3B
:1040900000F0AAFF41EC180B53EC1B2B51EC190B51
:1040A00000F0A4FEDFF8C8A241EC100B4FEA15584F
:1040B0000125FA4453EC102B51EC180B01F06CF86D
:1040C000032DC4E900013DD0C1F30A5005EB4511B1
:1040D000A8EB00001139814234DA0AEB051BB0EE7F
:1040E00048AA9BED000BF0EE68AA53EC102B51ECA4
:1040F000190B00F07BFE41EC1B0B51EC1A0B53EC3F
:104100001B2B01F049F841EC180B51EC1A0B53EC46
:10411000182B01F041F853EC1B2B01F03DF89BEDFF
:10412000020B41EC1A0B53EC102B51EC190B00F065
:104130005DFE53EC1A2B01F02FF841EC100B6D1CB7
:10414000B8E70EE0002EA8BF3846BFF628AF94EDC2
:10415000000B51EC100B00F0B0FBC4E900017842F9
:104160001DE7C6F3130040F4801EC6F30A50A0F208
:10417000F530471100F01F05C5F12000DDF848B00B
:1041800008900020069007900520EC467949002D04
:1041900007EB0002794408BF51F8221009D051F80A
:1041A000223001EB8201AB404A68089922FA01F102
:1041B0001943A1FB0E26A1FB0B131A449A4234BFEC
:1041C0000123002303EB06080CEB8003D3E901A6CF
:1041D0000E448E4234BF0121002192448A4411B121
:1041E000924502D903E0924501D2012100E000216D
:1041F000C3E901A641444CF82010011EA0F10100C2
:10420000C4DC029800F10050850F0298DDE90367D5
:104210008000DDF8148000F0BEFD41EC1A0B304642
:1042200000F0D0FD9FED541B53EC112B00F0DEFD90
:1042300041EC1B0B384600F0C5FD9FED511B53ECC4
:10424000112B00F0D3FD41EC180B404600F0BAFDF5
:104250009FED4D1B53EC112B00F0C8FD41EC190BE9
:1042600051EC180B53EC192B00F066FB53EC1B2B95
:1042700000F062FB53EC1A2B00F05EFBCDE9080165
:10428000002008909DED080B53EC1A2B51EC100BFD
:1042900000F082FF53EC1B2B00F07EFF53EC182B39
:1042A00000F07AFF53EC192B00F09EFE9FED381BB7
:1042B00053EC112B00F09AFD9FED370B41EC180BDE
:1042C00053EC102B9DED080B51EC100B00F08EFD04
:1042D00053EC182B00F030FB9FED310B41EC180B29
:1042E00053EC102B9DED080B51EC100B00F07EFDF4
:1042F00053EC182B00F020FB41EC100B139810F03E
:10430000004F06D06D4251EC100B00F0D6FA41EC94
:10431000100B284684ED000B41E600000000000071
:104320000000000000000000FB21E93F7CD90240B2
:1043300000004054FB21F93F3163621A61B4D03D63
:10434000FB21F93F000000000000601A61B4D03D7D
:104350007370032E8A19A33BFB2139410000000032
:1043600083C8C96D305FE43F000000000000E03FFB
:1043700092150000E0140000000000000000103E54
:10438000000000000000103C000000000000103A97
:10439000182D4454FB21F93D3326A611460B113C40
:1043A00000000054FB21F93D10B52DED040B2DED5F
:1043B000088B82B0B0EE419AF0EE619A0B9820F033
:1043C00000449FED4BABB4F1795F11DA9DED0A0B20
:1043D00051EC100B00F0B0FC002801BFB0EE4A0A0F
:1043E000F0EE6A0A02B0BDEC088B04BF04B010BD49
:1043F0009DED0A0B53EC102B51EC100B00F0F6FC6A
:1044000041EC180B3C480621B0EE480AF0EE680A71
:10441000784400F081F853EC182B51EC100B00F0AD
:10442000E5FC9DED0A0B41EC1B0B53EC192B51ECF9
:10443000100B00F0DBFC41EC190B53EC1B2B51EC87
:10444000180B00F0D3FC53EC192B00F0A5FE9FEDE8
:104450002C0B41EC190B53EC102B51EC180B00F00A
:10446000C5FC41EC100B2848844210DA53EC192BA0
:1044700051EC100B00F090FE53EC1A2B00F0B4FD41
:1044800041EC100B02B0BDEC088B04B010BD1F480E
:10449000A042BCBF9FED1E1B8DED001B06DBA4F5EB
:1044A00000100190002000909DED001B51EC100BBE
:1044B00053EC112B00F070FE9DED000B41EC180B3E
:1044C00053EC102B51EC1A0B00F066FE41EC1A0B6A
:1044D00053EC192B51EC180B00F05EFE53EC1A2B29
:1044E00000F082FD41EC100BCCE700000000000062
:1044F000000000000000F03F041200000000000077
:10450000000000000000E03F3333D33F0000E93FEC
:10451000000000000000D23F70B504462DED028B74
:104520004D1E00EBC500B0EE408AF0EE608A90EDC3
:10453000000B35F0060017D053EC182B51EC100B84
:1045400000F054FC41EC100B6D1E04EBC50090ED27
:10455000001B51EC100B53EC112B00F0EDF941EC6A
:10456000100B35F00600E7D1022D36D0042D1CD0FB
:10457000062D1CBFBDEC028B70BD53EC182B51EC0B
:10458000100B00F033FC94ED0A1B53EC112B00F0E0
:10459000D3F953EC182B00F029FC94ED081B53ECD5
:1045A000112B00F0C9F941EC100B53EC182B51EC16
:1045B000100B00F01BFC94ED061B53EC112B00F0CC
:1045C000BBF953EC182B00F011FC94ED040B53ECE9
:1045D000102B00F0B1F941EC100B53EC182B51ECFF
:1045E000100B00F003FC94ED021B53EC112B00F0B8
:1045F000A3F953EC182B00F0F9FB94ED001B53ECDE
:10460000112B00F099F9BDEC028B41EC100B70BD41
:1046100031B504462DED040B2DED0A8BB0EE41BAF9
:10462000F0EE61BA0B989DED0A0B20F00040B0F15E
:10463000795F0DDA51EC100BFEF775FE042808BF08
:1046400000F09AF89DED0A0BBDEC0A8B05B030BD69
:1046500053EC102B51EC100B00F0C8FB41EC180B85
:104660009DED0A0B53EC182B51EC100B00F0BEFB28
:1046700041EC190B2C48B0EE480AF0EE680A05210F
:104680007844FFF749FF9FED2ACBB0EE40AAF0EE49
:1046900060AA9CB353EC1C2B51EC190B00F0A6FB49
:1046A00041EC1C0B53EC1A2B51EC190B00F09EFB48
:1046B0009FED210B41EC190B53EC102B51EC1B0B14
:1046C00000F094FB53EC192B00F066FD53EC182B13
:1046D00000F08CFB53EC1B2B00F05EFD53EC1C2B0D
:1046E00000F05AFD9DED0A1B53EC112B00F07CFCF1
:1046F000BDEC0A8B05B041EC100B30BDFFE753EC6D
:104700001A2B51EC180B00F071FB53EC1C2B00F032
:1047100013F953EC192B00F069FB9DED0A1B53ECC8
:10472000112B00F009F9E3E78C10000000000000F5
:10473000495555555555C5BF000000000000E03FE4
:1047400010B553EC102B51EC100B00F0F5F841ECC8
:10475000100B10BD000000009FED050B10B553ECD1
:10476000102B51EC100B00F08FF941EC100B10BD29
:1047700000000000000000009FED050B10B553EC99
:10478000102B51EC100B00F031FB41EC100B10BD65
:104790000000000000000010DFED030AB7EE001A71
:1047A00081EE200A704700000000000030EE200A71
:1047B00070470000DFED020A80EEA00A704700009B
:1047C000000000009FED020A20EE000A7047000082
:1047D000000000709FED020A20EE000A7047000002
:1047E0000000001082B0CDE9000121F000400190EE
:1047F0009DED000B02B051EC100B7047FCF79EFDD5
:10480000FEF784F90E4C00202070FDF7CDFDFDF77A
:10481000ADFDFDF76DFD2046FCF7F2F8FDF75AFE01
:10482000022208490848FCF767FA0548FCF7B2F885
:1048300004F1C80090EC040AFBF7DAFEF5E700008B
:104840000401002014000020F401002000B52DED2B
:10485000048B83B041EC190B00F0D2FB41EC180B38
:1048600018EE100A18EE901A8DED008B002818BF74
:104870000120084320F00040C0F17F6000F1E040DB
:10488000C00F14D019EE101A19EE900A8DED009B8E
:10489000002918BF0121084320F00040C0F17F60CB
:1048A00000F1E040C00F04BF0120FBF783FD51EC95
:1048B000180B03B0BDEC048B00BD81F000417047C4
:1048C00080F00040704721F00041704720F0004028
:1048D0007047000021F00042A2F16052B2F5801F43
:1048E00001F0004328BFD2F17F6C0BD95FEA001CB6
:1048F00043EAC20242EB507018BF704728BF20F055
:1049000001007047B2F5801FBCBF184670474FEAE0
:10491000410C1CF5001F02D2084600F09DBD70B589
:1049200000F00EFB00000089FFF7F6BF4FF00040DB
:10493000A0F580007047000010B591EA030F48BF52
:1049400083F0004300F13084841A71EB030C05D22C
:10495000121943EB0C03001B61EB0C01DFF824E19F
:104960004FEA1154A4EB135C1EEA430F18BF9EEAF2
:10497000445F73D023EA0E03DCF1200E21EA0451D8
:1049800043F4801332D322FA0CFE10EB0E0023FA0C
:104990000CFE41EB0E01CCF1200E03FA0EFE10EBE3
:1049A0000E0051F10001B1F5801FCCF1200E32D282
:1049B00001EB045112FA0EF2BDE8104058BF7047E7
:1049C000401C38BF5FEA420218BF7047002814BF7E
:1049D00020F0010041F100014FEA410313F5001FEF
:1049E00038BF7047A1F1C04100F0F8BA012A43EB8B
:1049F0000302ACF1200CDCF11F0E32BF4FF0000EB1
:104A000023FA0CF310EB030041EB0451B4EB115FFC
:104A1000D0D0A1EB045101F5801149085FEA3000C4
:104A200001EB04510ED350F1000038BF12FA0EFE14
:104A300008D1BDE81040C9E7401C38BF5FEA420218
:104A4000CAD1C3E7BDE810404FEA410313F5001F88
:104A500038BF7047A1F1C04100F0C0BA9EEA445F80
:104A600008D011EA5E0FBDE8104004BF01F000411C
:104A700000207047BDE8104070B500F061FA00BF3B
:104A800064FBBE3E0000E0FF2DE9C04130B4DFF81A
:104A9000A0C23CEA111418BF3CEA131400F0EC80E9
:104AA00081EA03051CEA111444EAD57418BF1CEA14
:104AB000131500F0C780A4EB05044FF0004545EA4C
:104AC000C12145EAC32341EA505143EA525304F15C
:104AD0007F74994204F500344FEAC0204FEAC222A5
:104AE00008BF904200F09C804FEA13650FF2401619
:104AF000765D4FEA134506FB05F7C7F1807706FBA5
:104B000007F74FEAD737A7FB03687642C8F5803826
:104B1000A7FB06CE38BFA8F1010807FB08E64FF057
:104B2000000EA6FB028CE6FB03CEDCF1000CCEF1FE
:104B3000004E38BFAEF1010EA6FB0C584FF0000737
:104B40004FF00005E6FB0E87A1FB08C6A0FB07CED1
:104B500016EB0E0645F10005E1FB076515F1E04E89
:104B60007EBFA4F580345FEA46066D4116F18007EA
:104B700045F100054FEA17274FEA066647EA056741
:104B8000A6F1DE46B6F1805F4FEA15251FD93846FB
:104B900024F0010C05EBC471BCF1FE6F01EB0C11AC
:104BA00002D8F0BCBDE8008124425CBF01F5801E44
:104BB0009EEAC47F02D4F0BCBDE80081244238D410
:104BC000F0BCA1F1C041BDE8004100F007BA4FEAD6
:104BD000D22242EA43524FEAD323A7FB02864FEA8E
:104BE000D02040EA415007FB03661EEA0E0F4FEA51
:104BF000D12105FB026658BFA6EB0056B6EB005666
:104C00004FEA520E4EEAC37E18EB0E0E56EB530ED1
:104C1000BDD518EB02085E417F1C55F10005B6E7D3
:104C20004FF480154FF000074FF000064FF00008DA
:104C3000ADE7F0BC4FF0000001F1C04101F00041D0
:104C4000BDE8008111EA0C1F0CEA131500D00CE03E
:104C500013EA0C1F00F025804FF00000F0BC81EA41
:104C6000030101F00041BDE80081F0BCBDE8004156
:104C700081EA030100F0B2B9F0BCBDE8004170B5B3
:104C800000F05EF9097EFC3E00F007B881EA0301FE
:104C90004FF0000001F00041704781EA030100F08D
:104CA0009DB9F0BCBDE800414FF0000021497047BC
:104CB000FFFDFBF9F7F5F4F2F0EEEDEBE9E8E6E4E1
:104CC000E3E1E0DEDDDBDAD8D7D5D4D3D1D0CFCD68
:104CD000CCCBCAC8C7C6C5C4C2C1C0BFBEBDBCBBA1
:104CE000BAB9B8B7B6B5B4B3B2B1B0AFAEADACAB9C
:104CF000AAA9A8A8A7A6A5A4A3A3A2A1A09F9F9E76
:104D00009D9C9C9B9A999998979796959594939327
:104D1000929191908F8F8E8E8D8C8C8B8B8A8989BE
:104D20008888878786858584848383828281818041
:104D30000000FF070000F87F4FEA41034FEA53539A
:104D4000A3F58063D3F11E03C8BFD3F1210C0CDDA2
:104D50004FF0004242EAC12242EA505232FA03FCCA
:104D60008CEAE17CACEBE1707047102BC4BF0020F3
:104D7000704703F5787CBCF1FF3F04D06FF0004230
:104D800082EA2100704770B500F0DAF84992248079
:104D900000207047F2E710F0004248BF4042B0FAEE
:104DA00080F310FA03F10AD0C3F11D0303F5806309
:104DB0004FEA415002EB035202EBD12170474FF012
:104DC00000007047B0FA80F310FA03F10AD0C3F183
:104DD0001D0303F580634FEA41504FEA035202EB93
:104DE000D12170474FF0000070470000DFF848C144
:104DF00070B51CEA111E1EBF1CEA13159EEA0C0FAB
:104E000095EA0C0F00F06F8081EA030423EA4C134B
:104E10004EEAD47E21EA4C1141F4801143F4801310
:104E2000AE44A1FB024CA0FB0365AEF17F7E3619B8
:104E300055EB0C05A1FB034C4CF10003A0FB021C3D
:104E400016EB0C06654153F10003094218BF46F00A
:104E5000010613F4007F0BD14FEA03314FEA05300E
:104E6000340341EA155140EA16506FF003020AE09C
:104E70004FEAC3214FEAC520F40241EA555140EA06
:104E800056506FF0020202EB2E4201EB025585EA0A
:104E9000CE710AD05FEA440C18BF24F0004450F1F0
:104EA000000041F1000120EAD47040F2FE7C62452E
:104EB00000D270BDA84214BF4FF080444FF0404470
:104EC000002E08BF0024BEF1806FA8BFA1F1C04131
:104ED000BDE8704080F282804FF0000001F1C041D7
:104EE00001F0004170479EEA0C0F0CEA131518BF41
:104EF00095EA0C0F06D04FF0000081EA030E0EF089
:104F0000004170BD00F01CF88900013E00F007B8B8
:104F100000F009B84FEA430C5FEA5C5C08D081EA14
:104F2000030100F05BB84FEA410C5FEA5C5CF6D12C
:104F30004FF00000014970470000FF070000F87FB4
:104F40000EF1020E2EF0030E5EF8046B364205D40D
:104F5000012A43EB030515F5001F12D8012841EB88
:104F6000010C1CF5001F0CD80ED14FEAD17C15F5B1
:104F7000001F0CEB4C0C0CF1020C08BF4CEBD37C6B
:104F800004E04FF0080C01E04FEAD37C0CEB4C0539
:104F900026FA05F606F00706B6F1040C06D20EEB6B
:104FA000860CBDE870404CF0010C6047DFE80CF067
:104FB000090B02024FF000414FF00000A1F5002163
:104FC00070BD19461046012851EB010418BFD4F5F5
:104FD000001484BF002001F0004170BD0808A0F556
:104FE00000114FEA3101704791EA030F10B581F0CB
:104FF00000413FF5A9AC83F0004300F0D5B80000B4
:105000002DE9F04101F5801CBCF5001FC0F2A9801C
:105010004FEA115C21EA0C510CF1FD0C41F48011B6
:105020005FEA5C0C0CF5C07C01D34000494130A420
:10503000890241EA905187028E0E0A0CA45D04FB9E
:1050400004F602FB06F6C6F14046A4FB0662F60D26
:1050500046EA422606FB06F4A4FB01235242C3F1B2
:10506000404338BF5B1EA6FB02420024E6FB03243C
:10507000D20B42EA4446A6FB0623A1FB02E2A3FBB5
:1050800007E4E3FB61426442C2F1404E38BFAEF137
:10509000010EA6FB04234FF00002E6FB0E32A2FB3A
:1050A00003463400E2FB6264A1FB06E6A4FB07E8CA
:1050B000E4FB61687642C8F1405838BFA8F10108A6
:1050C000A2FB06E4A3FB08E5E2FB6854A1FB05E6AE
:1050D000A7FB04E8E1FB648618F1200556F1000601
:1050E000A809A8F11B08B10908F03F08B8F10A0F98
:1050F00040EA86601CD901EB0C51BDE8F08100BF8D
:10510000FCF5EEE8E2DDD8D3CFCBC7C3C0BDB9B65E
:10511000B4B1AEACA9A7A5A3A19F9D9B9A98969563
:105120009392908F8D8C8B898887868584838281EA
:10513000A0FB006800FB01F208EB4208B8EB8728EF
:1051400007D5341858EB0104D5D5401C51F10001A6
:10515000D1E7341A78EB0104CDD4401E71F100017F
:10516000C9E75FEA4C0C5FEA9C5C0DD105D34FF0B8
:10517000000001F00041BDE8F081BDE8F04170B5EC
:10518000FFF7DEFE6DDBFFBEBDE8F0414FF0000033
:10519000004970470000F87F10B591EA030F48BF3F
:1051A00083F000433FF5D0AB841A71EB030C07D2B8
:1051B00012198CF0004C43EB0C03001B61EB0C014B
:1051C000DFF8A4E14FEA1154A4EB135C1EEA430F8D
:1051D00018BF9EEA445F00F0B08023EA6E0352429B
:1051E00021EA0451C3EB6E0338BF5B1EDCF1200ED5
:1051F00025D322FA0CFE10EB0E0043FA0CFE41EB15
:105200000E01CCF1200E03FA0EFE10EB0E0051F150
:105210000001CCF1200E29D412FA0EF201EB045158
:10522000BDE8104058BF7047401C1CBFB2F1004F92
:10523000704700280CBF491C20F00100704712EB9A
:10524000020E43EB030218BF4FF0010E4EEA42027A
:10525000ACF1200CDCF11E0E54D943FA0CFE10EB1D
:105260000E0051F1FF31CCF11E0ED5D50EF1010E1D
:1052700012FA0EFE404141EB010101EB445C5FEA92
:105280005C5C10D910EBDE7001EB045138BFBEF14D
:10529000004FBDE8104018BF704700280CBF491CE4
:1052A00020F00100704730D24FEAD42C11F50011E4
:1052B00024F400641BD0B1FA81F20B3AA41AA41EA4
:1052C000D2F12003914030FA03F31943904001EBEF
:1052D000CC71002C01EB0451BDE81040A8BF704711
:1052E00001F1C0414FF0000001F000417047B0FAF9
:1052F00080F310FA03F100D110BDE41A173C480501
:10530000C90AE4E701EB045110BD491001EB045157
:10531000BDE810404FEA300002E04FF00001704756
:105320004A0008BF0042F8D0B2F5001F28BF7047FE
:1053300001F000414FF0000070479EEA445F07D043
:1053400011EA5E0FBDE8104004BF00210020704745
:10535000BDE8104070B5FFF7F3FD00BF40DFF63E3B
:1053600083F00041104670470000E0FF43004FEA21
:10537000D30C4FEA3C0C43401FBF40070CF1605177
:1053800013F0FE4F70471CF0006F03D100200CF0AB
:10539000004170470CF0004343EA507010B540EAFA
:1053A000CC0000F00EF800BF000000924FEA0001B0
:1053B000FFF714BE4FF000414FF00000A1F50021AF
:1053C00070470EF1020E2EF0030E5EF8044B2442DD
:1053D00004D44FEA4102B2F17F4F11D84FEA4003A3
:1053E000B3F17F4F0CD80ED14FEAD07CB2F17F4F92
:1053F0000CEB4C0C0CF1020C08BF4CEBD17C04E024
:105400004FF0080C01E04FEAD17C0CEB4C0324FA7E
:1054100003F404F00704B4F1040C06D20EEB840C80
:10542000BDE810404CF0010C6047DFE80CF00708C5
:1054300002024FF00040A0F5800010BD0846420077
:1054400018BFD2F1807288BF00F0004010BD4FF04D
:105450004070E1EE100A7047FF2141EAD050C005CC
:10546000704700061016000610160000000000002D
:105470000000010203040607080900000000010201
:105480000304000000000000555555555555C53F13
:105490007D6FEB0312D6D4BF5544880E55C1C93F6A
:1054A0003B8F68B52882A4BF88B20175E0EF493F01
:1054B00009F7FD0DE13D023F4B2D8A1C273A03C041
:1054C000C88A599CE52A004059018D1B6C06E6BF2D
:1054D00082922EB1C5B8B33F00000000000000006A
:1054E0000000B33FB2BE7D3A00002E40DFCF5138FE
:1054F00000007E40BF51FABA00E0A44019DAC3BAF6
:1055000000E0C840C2ED8AB90040EB40CD1F2CBA84
:10551000001006412AFFFABA00C01541DFCFD1378B
:1055200000D024419A97703A0050334189478E3613
:1055300000404141E75B9D3800B04E41C00A98B938
:1055400000A05B41558F943A00306841DA92C0BAAE
:105550000040744162B3C63A0000803F00A0853F1E
:1055600000908B3F00C0913F0030983F00F09E3F7D
:1055700000F0A53F0050AD3F0000B53F0000BD3F2B
:105580000060C53F0020CE3F0040D73F00C0E03F55
:1055900000C0EA3F0020F53F000000007D36AC3936
:1055A0007D3C3839EBDCF438320A7E39124C26392E
:1055B0009B6AED39A4EE83397F661E39F6398A3944
:1055C0002B426539A48211395B991F39C3EECD395D
:1055D000DDE7C637A5A22F390000803FC3AA853F6B
:1055E000C2958B3FD3C3913FF037983F32F59E3F32
:1055F000D7FEA53F3F58AD3FF304B53FA408BD3FDC
:105600002A67C53F8C24CE3FFD44D73FDFCCE03F27
:10561000C7C0EA3F7D25F53F4C5555555555A53F2B
:105620007751C1166CC156BF9015CB19A001FA3E37
:10563000AD529C804F7E92BEC4B1B4BD9EEE213E61
:10564000D43888BEE9FAA8BD00004054FB21F93FD8
:105650003163621A61B4D03D0000601A61B4D03D7C
:105660007370032E8A19A33B0000002E8A19A33BF6
:10567000C14920259A837B3900000000000000000A
:105680006E83F9A22915444ED15727FCC0DD34F5AD
:10569000999562DB4190433CAB6351FE61C5BBDE33
:1056A0003A6E24B7E0D24D42EA2E49061C92D10947
:1056B0001CEB1DFE3EA729B1F53582E88444BB2EC4
:1056C00026709CE9417E5FB439D69139F439538311
:1056D0008B5F849C3B28F9BDFF97F81F0F9805DE70
:1056E0008B112FEF1F6D0A5ACF7E366DB709CB276E
:1056F000663F464F2DEA5F9EC7BA27757BF1E5EB03
:10570000F739073DEA92528AB15FFB6B085D8D1F46
:10571000A6F810111111813FD561C119A0012ABF4E
:105720007DFEB157E31DC73EEB9C2B8AE6E55ABED2
:105730007CD5CF5A3AD9E53D5857000800000020E3
:105740002C000000C4010008845700082C00002031
:10575000BC090000E001000800000000000000009B
:105760000000000000000000000000000000000039
:105770000000000001000000100000000000000018
:045780000024F4000D
:040000050800018965
:00000001FF
